:020000040800F2
:100000000000012071060008C1060008C1060008B2
:10001000C1060008C1060008C10600080000000073
:10002000000000000000000000000000C106000801
:10003000C106000800000000C1060008C106000853
:10004000C1060008C1060008C1060008C106000874
:10005000C1060008C1060008C1060008C106000864
:10006000C1060008C1060008C1060008C106000854
:10007000C1060008C1060008C1060008C106000844
:10008000C1060008C1060008C10600080000000003
:10009000000000000000000000000000C106000891
:1000A000C1060008C1060008C1060008C106000814
:1000B000C1060008C1060008C1060008C106000804
:1000C000C1060008C1060008C1060008C1060008F4
:1000D000C1060008C1060008C106000800000000B3
:1000E000C1060008C1060008C106000800000000A3
:1000F000000000000000000000000000C106000831
:1001000000000000C1060008C1060008C106000882
:1001100000000000000000000000000000000000DF
:10012000C1060008C1060008C1060008C106000893
:10013000C1060008000000000000000000000000F0
:10014000000000000000000000000000C1060008E0
:10015000C1060008C1060008C1060008C106000863
:10016000C1060008C10600080000000000000000F1
:10017000000000000000000000000000000000007F
:1001800000000000C10600080000000000000000A0
:04019000C10600089C
:1001940010B5054C237833B9044B13B10448AFF3BD
:1001A40000800123237010BD5800002000000000CF
:1001B4000C07000808B5034B1BB103490348AFF310
:1001C400008008BD000000005C0000200C0700084F
:1001D40080B483B000AF0346FB71FB79002B05D1DB
:1001E4000A4B1B68094A43F001031360FB79012B96
:1001F40005D1064B1B68054A43F00203136000BF98
:100204000C37BD465DF8047B704700BF30380240B0
:1002140090B482B000AF0446084611461A462346FD
:10022400FB710346BB710B467B7113463B71FA7934
:10023400564913469B0013449B000B441B681968E2
:10024400BB795B00032202FA03F3DB431C46FA7911
:100254004E4813469B0013449B0003441B6801EA69
:1002640004021A60FA79494913469B0013449B001F
:100274000B441B6819687A79BB795B0002FA03F3B3
:100284001C46FA79414813469B0013449B000344DF
:100294001B6841EA04021A60FA793C4913469B0040
:1002A40013449B000B4404331B681968BB79012277
:1002B40002FA03F3DB431C46FA79344813469B00E5
:1002C40013449B00034404331B6801EA04021A60CC
:1002D400FA792E4913469B0013449B000B440433C4
:1002E4001B6819683B7903F00102BB7902FA03F336
:1002F4001C46FA79254813469B0013449B0003448B
:1003040004331B6841EA04021A60FA791F49134650
:100314009B0013449B000B4408331B681968BB798A
:100324005B00032202FA03F3DB431C46FA79174805
:1003340013469B0013449B00034408331B6801EAE3
:1003440004021A60FA79114913469B0013449B0076
:100354000B4408331B6819683B795B1003F00302F4
:10036400BB795B0002FA03F31C46FA79074813468B
:100374009B0013449B00034408331B6841EA0402B6
:100384001A6000BF0837BD4690BC704700000020CB
:1003940090B484B000AF0346FB710B46BB711346A7
:1003A4007B71FA792C4913469B0013449B000B4440
:1003B4001B681B68BA795200032101FA02F21A4041
:1003C400BB795B0022FA03F3012B3DD17B79002B2F
:1003D4001BD0FA79204913469B0013449B000B441D
:1003E40010331B681968BB79012202FA03F31C4617
:1003F400FA79194813469B0013449B0003441033B5
:100404001B6841EA04021A601BE0FA791249134698
:100414009B0013449B000B4410331B681968BB7981
:10042400012202FA03F3DB431C46FA790A48134615
:100434009B0013449B00034410331B6801EA04022D
:100444001A600023FB7301E00123FB73FB7B184656
:100454001037BD4690BC70470000002080B485B0C2
:1004640000AF03460A46FB711346BB710023FB73BE
:10047400FA790C4913469B0013449B000B440C333C
:100484001B681B68BA79012101FA02F21A40BB7990
:1004940022FA03F3FB73FB7B18461437BD465DF861
:1004A400047B70470000002080B582B000AF0023B9
:1004B4007B6009E07B68D9B2002301220120FFF7A9
:1004C400A7FE7B6801337B607B68022BF2DD00238F
:1004D4003B600BE03B68DBB20333D9B2022300225A
:1004E4000120FFF795FE3B6801333B603B68032B1B
:1004F400F0DD00BF00BF0837BD4680BD80B582B0C7
:1005040000AF224B1B78002B3BD100237B6035E0EE
:100514007B68DBB2002219460120FFF739FF002374
:100524003B601EE03B68DBB20333DBB219460120BB
:10053400FFF794FF0346002B10D1144B01221A70CD
:1005440013493A6813465B0013447A68134451F81C
:100554002330DAB20F4B1A7000F051F83B680133C4
:100564003B603B68032BDDDD7B68DBB2012219466F
:100574000120FFF70DFF7B6801337B607B68022B52
:10058400C6DD00BF0837BD4680BD00BF7400002033
:10059400280000207500002080B400AF074B1B78B2
:1005A400012B05D1054B00221A70054B1B7800E086
:1005B400FF231846BD465DF8047B70477400002095
:1005C4007500002080B582B000AF0020FFF700FE68
:1005D4000120FFF7FDFD0023FB7108E0F9790023FA
:1005E40001220020FFF714FEFB790133FB71FB7934
:1005F400062BF3D9FFF758FFFFF780FFFCE780B520
:1006040082B000AFFFF7C8FF0346FB7000237B6096
:1006140012E07B68D9B2FA7801207B6800FA03F310
:100624001A407B6842FA03F3DBB21A460020FFF754
:10063400AFFE7B6801337B607B68062BE9DD00BF7E
:1006440000BF0837BD4680BD80B400AF064BD3F869
:100654008830054A43F47003C2F8883000BFBD46B1
:100664005DF8047B704700BF00ED00E0DFF834D094
:100674000D480E490E4A002302E0D458C4500433F6
:10068400C4188C42F9D30B4A0B4C002301E01360CD
:100694000432A242FBD3FFF7D7FF00F011F8FFF7B3
:1006A40091FF704700000120000000205800002046
:1006B4002C0700085800002078000020FEE7000006
:1006C40070B50D4D0D4C641BA4100026A64209D133
:1006D4000B4D0C4C00F018F8641BA4100026A64225
:1006E40005D170BD55F8043B98470136EEE755F83F
:1006F400043B98470136F2E7240700082407000862
:100704002407000828070008F8B500BFF8BC08BC97
:100714009E467047F8B500BFF8BC08BC9E467047BB
:04072400B90100080F
:04072800950100082F
:10072C0000000240040002400C0002401000024095
:10073C001400024000040240040402400C04024075
:10074C001004024014040240060000005B0000008C
:10075C004F000000660000006D0000007D000000EE
:10076C00070000007F0000006F0000003F00000049
:08077C003F0000003F000000F7
:040000050800067178
:00000001FF
