:020000040800F2
:1000000000000120A9070008310700083707000891
:100010003D070008430700084907000800000000EA
:100020000000000000000000000000004F07000872
:100030005D070008000000006B0700087907000852
:10004000F9070008F9070008F9070008F907000890
:10005000F9070008F9070008F9070008F907000880
:10006000F9070008F9070008F9070008F907000870
:10007000F9070008F9070008F9070008F907000860
:10008000F9070008F9070008F90700080000000058
:10009000000000000000000000000000F907000858
:1000A000F9070008F9070008F9070008F907000830
:1000B000F9070008F9070008F9070008F907000820
:1000C000F9070008F9070008F9070008F907000810
:1000D000F9070008F9070008F90700080000000008
:1000E000F9070008F9070008F907000800000000F8
:1000F000000000000000000000000000F9070008F8
:1001000000000000F9070008F9070008F9070008D7
:1001100000000000000000000000000000000000DF
:100120008D030008F9070008F9070008F90700081F
:10013000F9070008000000000000000000000000B7
:10014000000000000000000000000000F9070008A7
:10015000F9070008F9070008F9070008F90700087F
:10016000F9070008F907000800000000000000007F
:10017000000000000000000000000000000000007F
:1001800000000000F9070008000000000000000067
:04019000F907000863
:1001940010B5054C237833B9044B13B10448AFF3BD
:1001A40000800123237010BD3000002000000000F7
:1001B4006C08000808B5034B1BB103490348AFF3AF
:1001C400008008BD00000000340000206C08000816
:1001D40080B400AF054B1B68044A43F480031360EA
:1001E40000BFBD465DF8047B704700BF3038024055
:1001F40080B483B000AF3B600346FB710B46BB7118
:1002040013467B71324B1B68314A23F01103136090
:100214002F4B1B682E4A43F0100313602C4B1B68B2
:100224002B4A23F408731360294B1A683B689B011B
:10023400274913430B60264B1B683A7D5202114633
:10024400234A0B431360224B1B683A7D92021146EA
:100254001F4A0B4313601E4B1B687A79D202114666
:100264001B4A0B4313601A4B1B687A7952031146DD
:10027400174A0B431360164B1B68BA7912041146D4
:10028400134A0B431360124B1B683A7C5205114608
:100294000F4A0B4313600E4B1B683A7CD205114680
:1002A4000B4A0B4313600A4B1B68094A23F008539B
:1002B4001360084ABB691360074AFB691360074A65
:1002C400FB79136000BF0C37BD465DF8047B7047B3
:1002D40010640240186402401C640240146402402A
:1002E40080B400AF054B1B68044A43F0807313606D
:1002F40000BFBD465DF8047B704700BF04E100E029
:1003040080B400AF084B1B68074A43F00403136032
:10031400054B1B68044A43F00103136000BFBD464C
:100324005DF8047B704700BF2464024080B400AFD2
:10033400034B3D221A6000BFBD465DF8047B704745
:100344000864024080B483B000AF0E4B1B685B09A5
:10035400DBB203F00103FB710A4B1B68DB08DBB261
:1003640003F00103BB71FB79002B04D0BB79002B94
:1003740001D1012300E0002318460C37BD465DF887
:10038400047B70470064024080B500AF00F0A0F920
:10039400FFF7CCFF00BF80BD80B483B000AF03463D
:1003A400FB71FB79002B05D10A4B1B68094A43F00A
:1003B40001031360FB79012B05D1064B1B68054A29
:1003C40043F00203136000BF0C37BD465DF8047BA5
:1003D400704700BF3038024090B482B000AF04468A
:1003E400084611461A462346FB710346BB710B4669
:1003F4007B7113463B71FA79564913469B001344AB
:100404009B000B441B681968BB795B00032202FA4A
:1004140003F3DB431C46FA794E4813469B0013440E
:100424009B0003441B6801EA04021A60FA794949F3
:1004340013469B0013449B000B441B6819687A798C
:10044400BB795B0002FA03F31C46FA794148134670
:100454009B0013449B0003441B6841EA04021A6096
:10046400FA793C4913469B0013449B000B44043324
:100474001B681968BB79012202FA03F3DB431C46AB
:10048400FA79344813469B0013449B000344043315
:100494001B6801EA04021A60FA792E4913469B008C
:1004A40013449B000B4404331B6819683B7903F025
:1004B4000102BB7902FA03F31C46FA792548134674
:1004C4009B0013449B00034404331B6841EA040269
:1004D4001A60FA791F4913469B0013449B000B448E
:1004E40008331B681968BB795B00032202FA03F323
:1004F400DB431C46FA79174813469B0013449B00C0
:10050400034408331B6801EA04021A60FA791149AA
:1005140013469B0013449B000B4408331B68196863
:100524003B795B1003F00302BB795B0002FA03F32F
:100534001C46FA79074813469B0013449B00034466
:1005440008331B6841EA04021A6000BF0837BD463D
:1005540090BC70470000002090B484B000AF034604
:10056400FB710B46BB7113467B71FA792C49134618
:100574009B0013449B000B441B681B68BA79520010
:10058400032101FA02F21A40BB795B0022FA03F359
:10059400012B3DD17B79002B1BD0FA7920491346DE
:1005A4009B0013449B000B4410331B681968BB79F0
:1005B400012202FA03F31C46FA79194813469B00F8
:1005C40013449B00034410331B6841EA04021A607D
:1005D4001BE0FA79124913469B0013449B000B4419
:1005E40010331B681968BB79012202FA03F3DB4359
:1005F4001C46FA790A4813469B0013449B000344A3
:1006040010331B6801EA04021A600023FB7301E043
:100614000123FB73FB7B18461037BD4690BC704723
:100624000000002080B483B000AF01237B600CE0A5
:100634007B68642202FB03F27B68013B1146084A93
:1006440042F823107B6801337B607B68642BEFDD09
:1006540000BF00BF0C37BD465DF8047B704700BF88
:100664004C00002080B582B000AFFFF76BFE03465C
:10067400FB70FB78002B20D001237B6011E07B68AA
:10068400013B104A52F823207B68013B0E4951F884
:1006940023309A4202D00D4B00221A607B6801334A
:1006A4007B607B68642BEADD084B1B68012B04D15B
:1006B400012201210020FFF74FFF00BF0837BD468C
:1006C40080BD00BF4C000020DC0100202800002079
:1006D40080B500AFFFF7C6FF00BF80BD80B584B012
:1006E40004AF0020FFF758FEFFF7FAFDFFF770FD97
:1006F4000023012201210020FFF76EFEFFF792FF85
:10070400084B0393084B02930123019300230093A6
:100714000223022203216420FFF76AFDFFF7F0FDA4
:10072400FEE700BFDC0100204C00002080B400AFD5
:10073400FEE780B400AFFEE780B400AFFEE780B40C
:1007440000AFFEE780B400AFFEE780B400AF00BFA7
:10075400BD465DF8047B704780B400AF00BFBD4662
:100764005DF8047B704780B400AF00BFBD465DF800
:10077400047B704780B500AF00F03EF800BF80BD39
:1007840080B400AF064BD3F88830054A43F47003B5
:10079400C2F8883000BFBD465DF8047B704700BFD7
:1007A40000ED00E0DFF834D00D480E490E4A002376
:1007B40002E0D458C4500433C4188C42F9D30B4A11
:1007C4000B4C002301E013600432A242FBD3FFF779
:1007D400D7FF00F025F8FFF781FF704700000120E4
:1007E40000000020300000208C08000830000020A9
:1007F40070030020FEE7000080B400AF064B1B78B6
:100804001A46064B1B681344044A136000BFBD46D6
:100814005DF8047B704700BF2C0000206C030020AF
:1008240070B50D4D0D4C641BA4100026A64209D1D1
:100834000B4D0C4C00F018F8641BA4100026A642C3
:1008440005D170BD55F8043B98470136EEE755F8DD
:10085400043B98470136F2E784080008840800083E
:100864008408000888080008F8B500BFF8BC08BC74
:100874009E467047F8B500BFF8BC08BC9E4670475A
:04088400B9010008AE
:0408880095010008CE
:10088C0000000240040002400C0002401000024034
:10089C001400024000040240040402400C04024014
:1008AC00100402401404024001000000010000008A
:04000005080007A93F
:00000001FF
