:020000040800F2
:10000000000001204D050008D5040008DB040008AD
:10001000E1040008E7040008ED0400080000000007
:10002000000000000000000000000000F3040008D1
:1000300001050008000000000F0500081D0500086C
:100040009D0500089D0500089D0500089D05000808
:100050009D0500089D0500089D0500089D050008F8
:100060009D0500089D0500089D0500089D050008E8
:100070009D0500089D0500089D0500089D050008D8
:100080009D0500089D0500089D0500080000000072
:100090000000000000000000000000009D050008B6
:1000A0009D0500089D0500089D0500089D050008A8
:1000B0009D0500089D0500089D0500089D05000898
:1000C0009D0500089D0500089D0500089D05000888
:1000D0009D0500089D0500089D0500080000000022
:1000E0009D0500089D0500089D0500080000000012
:1000F0000000000000000000000000009D05000856
:10010000000000009D0500089D0500089D050008F1
:1001100000000000000000000000000000000000DF
:100120009D0500089D0500089D0500089D05000827
:100130009D05000800000000000000000000000015
:100140000000000000000000000000009D05000805
:100150009D0500089D0500089D0500089D050008F7
:100160009D0500089D05000800000000000000003B
:10017000000000000000000000000000000000007F
:10018000000000009D0500080000000000000000C5
:040190009D050008C1
:1001940010B5054C237833B9044B13B10448AFF3BD
:1001A40000800123237010BD2C00002000000000FB
:1001B4001006000808B5034B1BB103490348AFF30D
:1001C400008008BD00000000300000201006000878
:1001D400034613F8012B002AFBD1181A0138704783
:1001E40080B483B000AF0346FB71084B1B68FA79F7
:1001F400012101FA02F21146044A0B43136000BFC5
:100204000C37BD465DF8047B704700BF40380240A0
:1002140080B400AF134B1B68124A43F400531360BD
:10022400114B40F283621A600E4B1B680D4A43F077
:10023400080313600B4B1B680A4A23F40043136042
:10024400084B1B68074A23F480531360074B1B6851
:10025400064A23F48053136000BFBD465DF8047B57
:10026400704700BF0C440040084400401044004064
:1002740080B584B000AF78600023FB600FE0FB68BA
:100284007A6813441A780C4B1A6000BF0B4B1B6836
:1002940003F04003002BF9D0FB680133FB6078685E
:1002A400FFF796FF0246FB689A42E8D800BF00BFFA
:1002B4001037BD4680BD00BF0444004000440040E8
:1002C40080B483B000AF0346FB71FB79002B05D1EA
:1002D4000A4B1B68094A43F001031360FB79012BA5
:1002E40005D1064B1B68054A43F00203136000BFA7
:1002F4000C37BD465DF8047B704700BF30380240C0
:1003040090B482B000AF0446084611461A4623460C
:10031400FB710346BB710B467B7113463B71FA7943
:10032400564913469B0013449B000B441B681968F1
:10033400BB795B00032202FA03F3DB431C46FA7920
:100344004E4813469B0013449B0003441B6801EA78
:1003540004021A60FA79494913469B0013449B002E
:100364000B441B6819687A79BB795B0002FA03F3C2
:100374001C46FA79414813469B0013449B000344EE
:100384001B6841EA04021A60FA793C4913469B004F
:1003940013449B000B4404331B681968BB79012286
:1003A40002FA03F3DB431C46FA79344813469B00F4
:1003B40013449B00034404331B6801EA04021A60DB
:1003C400FA792E4913469B0013449B000B440433D3
:1003D4001B6819683B7903F00102BB7902FA03F345
:1003E4001C46FA79254813469B0013449B0003449A
:1003F40004331B6841EA04021A60FA791F49134660
:100404009B0013449B000B4408331B681968BB7999
:100414005B00032202FA03F3DB431C46FA79174814
:1004240013469B0013449B00034408331B6801EAF2
:1004340004021A60FA79114913469B0013449B0085
:100444000B4408331B6819683B795B1003F0030203
:10045400BB795B0002FA03F31C46FA79074813469A
:100464009B0013449B00034408331B6841EA0402C5
:100474001A6000BF0837BD4690BC704700000020DA
:1004840080B400AF054B1B68044A43F4E063136077
:1004940000BFBD465DF8047B704700BF20000240EA
:1004A40080B500AF0020FFF70BFF002302220221DA
:1004B4000020FFF725FFFFF7E3FF1120FFF790FE71
:1004C400FFF7A6FE0148FFF7D3FEFEE72806000863
:1004D40080B400AFFEE780B400AFFEE780B400AFA5
:1004E400FEE780B400AFFEE780B400AFFEE780B45F
:1004F40000AF00BFBD465DF8047B704780B400AF19
:1005040000BFBD465DF8047B704780B400AF00BFF8
:10051400BD465DF8047B704780B500AF00F03EF83F
:1005240000BF80BD80B400AF064BD3F88830054AC5
:1005340043F47003C2F8883000BFBD465DF8047B05
:10054400704700BF00ED00E0DFF834D00D480E49DD
:100554000E4A002302E0D458C4500433C4188C4219
:10056400F9D30B4A0B4C002301E013600432A2427E
:10057400FBD3FFF7D7FF00F025F8FFF791FF704793
:1005840000000120000000202C000020400600088C
:100594002C0000204C000020FEE7000080B400AFD7
:1005A400064B1B781A46064B1B681344044A136017
:1005B40000BFBD465DF8047B704700BF28000020E3
:1005C4004800002070B50D4D0D4C641BA41000268E
:1005D400A64209D10B4D0C4C00F018F8641BA41072
:1005E4000026A64205D170BD55F8043B9847013654
:1005F400EEE755F8043B98470136F2E73806000861
:1006040038060008380600083C060008F8B500BFA4
:10061400F8BC08BC9E467047F8B500BFF8BC08BCDF
:040624009E46704737
:1006280048656C6C6F20576F726C64210000000085
:04063800B9010008FC
:04063C00950100081C
:1006400000000240040002400C0002401000024082
:100650001400024000040240040402400C04024062
:0C066000100402401404024001000000DD
:040000050800054D9D
:00000001FF
