:020000040800F2
:10000000000001209D030008ED030008ED03000837
:10001000ED030008ED030008ED03000800000000F8
:10002000000000000000000000000000ED030008D8
:10003000ED03000800000000ED030008ED030008D8
:10004000ED030008ED030008ED030008ED030008D0
:10005000ED030008ED030008ED030008ED030008C0
:10006000ED030008ED030008ED030008ED030008B0
:10007000ED030008ED030008ED030008ED030008A0
:10008000ED030008ED030008ED0300080000000088
:10009000000000000000000000000000ED03000868
:1000A000ED030008ED030008ED030008ED03000870
:1000B000ED030008ED030008ED030008ED03000860
:1000C000ED030008ED030008ED030008ED03000850
:1000D000ED030008ED030008ED0300080000000038
:1000E000ED030008ED030008ED0300080000000028
:1000F000000000000000000000000000ED03000808
:1001000000000000ED030008ED030008ED03000807
:1001100000000000000000000000000000000000DF
:10012000ED030008ED030008ED030008ED030008EF
:10013000ED030008000000000000000000000000C7
:10014000000000000000000000000000ED030008B7
:10015000ED030008ED030008ED030008ED030008BF
:10016000ED030008ED03000800000000000000009F
:10017000000000000000000000000000000000007F
:1001800000000000ED030008000000000000000077
:04019000ED03000873
:1001940010B5054C237833B9044B13B10448AFF3BD
:1001A40000800123237010BD000000200000000027
:1001B4003804000808B5034B1BB103490348AFF3E7
:1001C400008008BD0000000004000020380400087E
:1001D40080B483B000AF654B1B6B644A43F00203E9
:1001E4001363634B1B68624A43F480631360604B80
:1001F4001B685F4A43F4805313605D4B1B685C4A81
:1002040043F4804313605A4B5B68594A23F020033C
:100214005360574B5B68564A23F040035360544B7A
:100224005B68534A23F080035360514B1B68504A68
:1002340023F0400313604E4BDB684D4A43F0400308
:10024400D36001237B6000233B60494B1B6903F0AF
:100254000803082B40F0878000233B6002E03B68E2
:1002640001333B603B6840F6C3129342F7DD404BD9
:100274001B6903F00803002B75D17B68013B062B37
:100284006AD801A252F823F0A9020008C3020008A8
:10029400DD020008F7020008110300082B03000820
:1002A40045030008324B00225A61314B5B69304AE6
:1002B40043F0E00353617B6801337B6054E02C4BD3
:1002C40000225A612A4B5B69294A43F0C0035361F7
:1002D4007B6801337B6047E0254B00225A61244B45
:1002E4005B69234A43F0A00353617B6801337B605D
:1002F4003AE01F4B00225A611D4B5B691C4A43F0D4
:10030400800353617B6801337B602DE0184B00222E
:100314005A61174B5B69164A43F0600353617B686B
:1003240001337B6020E0124B00225A61104B5B6961
:100334000F4A43F0400353617B6801337B6013E051
:100344000B4B00225A610A4B5B69094A43F02003B4
:10035400536100237B6007E0054B00225A617B68F0
:1003640001337B6000E000BF6FE700BF003802404C
:100374000004024080B400AF064BD3F88830054A2D
:1003840043F47003C2F8883000BFBD465DF8047BB7
:10039400704700BF00ED00E0DFF834D00D480E498F
:1003A4000E4A002302E0D458C4500433C4188C42CB
:1003B400F9D30B4A0B4C002301E013600432A24230
:1003C400FBD3FFF7D7FF00F011F8FFF701FF7047E9
:1003D4000000012000000020000000205804000854
:1003E400000000201C000020FEE7000070B50D4D49
:1003F4000D4C641BA4100026A64209D10B4D0C4CD5
:1004040000F018F8641BA4100026A64205D170BDA4
:1004140055F8043B98470136EEE755F8043B9847F6
:100424000136F2E7500400085004000850040008A4
:1004340054040008F8B500BFF8BC08BC9E467047D9
:0C044400F8B500BFF8BC08BC9E4670472D
:04045000B9010008E6
:040454009501000806
:040000050800039D4F
:00000001FF
