:020000040800F2
:1000000000000120C10200081103000811030008CC
:10001000110300081103000811030008000000008C
:1000200000000000000000000000000011030008B4
:10003000110300080000000011030008110300086C
:100040001103000811030008110300081103000840
:100050001103000811030008110300081103000830
:100060001103000811030008110300081103000820
:100070001103000811030008110300081103000810
:10008000110300081103000811030008000000001C
:100090000000000000000000000000001103000844
:1000A00011030008110300081103000811030008E0
:1000B00011030008110300081103000811030008D0
:1000C00011030008110300081103000811030008C0
:1000D00011030008110300081103000800000000CC
:1000E00011030008110300081103000800000000BC
:1000F00000000000000000000000000011030008E4
:10010000000000001103000811030008110300089B
:1001100000000000000000000000000000000000DF
:10012000110300081103000811030008110300085F
:1001300011030008000000000000000000000000A3
:100140000000000000000000000000001103000893
:10015000110300081103000811030008110300082F
:100160001103000811030008000000000000000057
:10017000000000000000000000000000000000007F
:100180000000000011030008000000000000000053
:04019000110300084F
:1001940010B5054C237833B9044B13B10448AFF3BD
:1001A40000800123237010BD000000200000000027
:1001B400FC06000808B5034B1BB103490348AFF321
:1001C400008008BD0000000004000020FC060008B8
:1001D40080B584B000AF002301220521422000F045
:1001E40097F8002301220621422000F091F8002311
:1001F40001220721422000F08BF801230022032171
:10020400422000F085F801220521422000F0A0F9E7
:1002140001220621422000F09BF9012207214220FD
:1002240000F096F90023FB730321422000F0FAF951
:100234000346FB71FB79012BF6D10023BB6002E07E
:10024400BB680133BB60BB68B3F5FA6FF8DB03210D
:10025400422000F0E7F90346BB71BB79002BE3D1E0
:10026400FB7B03F001031A460521422000F070F9DC
:10027400FB7B03F002031A460621422000F068F9D2
:10028400FB7B03F004031A460721422000F060F9C7
:10029400FB7B0133FB73C7E780B400AF064BD3F895
:1002A4008830054A43F47003C2F8883000BFBD4665
:1002B4005DF8047B704700BF00ED00E0DFF834D048
:1002C4000D480E490E4A002302E0D458C4500433AA
:1002D400C4188C42F9D30B4A0B4C002301E0136081
:1002E4000432A242FBD3FFF7D7FF00F0E1F9FFF796
:1002F4006FFF704700000120000000200000002074
:100304001C070008000000201C000020FEE700007D
:1003140080B485B000AFB9607A603B600346FB737C
:10032400FB7B412B03D0422B00F0838003E1854B00
:100334001B6B844A43F0010313637B68032B59D876
:1003440001A252F823F000BF5D030008B1030008C6
:10035400C9030008E10300087B4B1B68BA6852001C
:10036400032101FA02F2D2431146774A0B4013608B
:100374003B68012B03D03B68102B0BD03AE0724B47
:10038400DB680121BA6801FA02F211466E4A0B4396
:10039400D3600AE06C4BDB681021BA6801FA02F200
:1003A4001146694A0B43D36000BF23E0664B1B68C8
:1003B400BA685200012101FA02F21146624A0B4363
:1003C400136017E0604B1B68BA685200022101FAFF
:1003D40002F211465C4A0B4313600BE05A4B1B6854
:1003E400BA685200032101FA02F21146564A0B433D
:1003F400136000BF3B68002B03D03B68012B0CD07B
:1004040099E0514B5B680121BA6801FA02F2D243C8
:1004140011464D4A0B4053600AE04B4B5B68012187
:10042400BA6801FA02F21146474A0B43536000BF0F
:1004340081E0444B1B6B434A43F0020313637B6824
:10044400032B59D801A252F823F000BF610400081D
:10045400B5040008CD040008E50400083B4B1B6804
:10046400BA685200032101FA02F2D2431146374A14
:100474000B4013603B68012B03D03B68102B0BD05F
:100484003AE0324BDB680121BA6801FA02F2114604
:100494002E4A0B43D3600AE02C4BDB681021BA6868
:1004A40001FA02F21146294A0B43D36000BF23E04C
:1004B400264B1B68BA685200012101FA02F2114668
:1004C400224A0B43136017E0204B1B68BA685200A2
:1004D400022101FA02F211461C4A0B4313600BE09D
:1004E4001A4B1B68BA685200032101FA02F2114642
:1004F400164A0B43136000BF3B68002B03D03B68D4
:10050400012B0CD016E0114B5B680121BA6801FA8B
:1005140002F2D24311460D4A0B4053600AE00B4BE2
:100524005B680121BA6801FA02F21146074A0B43DB
:10053400536000BF00BF00BF1437BD465DF8047BA5
:10054400704700BF0038024000000240000402402F
:1005540080B487B000AF0346B9607A60FB73FB7B5D
:10056400412B02D0422B29D051E02C4B1A68BB6896
:100574005B0022FA03F303F00103002B1BD07B681A
:10058400002B0AD0254B5B690121BA6801FA02F2FB
:100594001146224A0B4353610AE0204B5B69012157
:1005A400BA6801FA02F2D24311461C4A0B40536165
:1005B4000023FB752BE00123FB7528E0184B1A6818
:1005C400BB685B0022FA03F303F00103002B1BD08A
:1005D4007B68002B0AD0124B5B690121BA6801FACF
:1005E40002F211460E4A0B4353610AE00C4B5B695D
:1005F4000121BA6801FA02F2D2431146084A0B40BB
:1006040053610023FB7501E00123FB7500BFFB7DF3
:1006140018461C37BD465DF8047B70470000024055
:100624000004024080B485B000AF03463960FB711A
:10063400FB79412B02D0422B17D02DE01A4B1A68BC
:100644003B685B0022FA03F303F00103002B09D19A
:10065400154B1A693B6822FA03F3DBB203F001037A
:10066400FB7319E00023FB7316E0104B1A683B6818
:100674005B0022FA03F303F00103002B09D10B4BB7
:100684001A693B6822FA03F3DBB203F00103FB733C
:1006940001E00023FB7300BFFB7B18461437BD4603
:1006A4005DF8047B704700BF000002400004024074
:1006B40070B50D4D0D4C641BA4100026A64209D143
:1006C4000B4D0C4C00F018F8641BA4100026A64235
:1006D40005D170BD55F8043B98470136EEE755F84F
:1006E400043B98470136F2E7140700081407000892
:1006F4001407000818070008F8B500BFF8BC08BCC8
:100704009E467047F8B500BFF8BC08BC9E467047CB
:04071400B90100081F
:04071800950100083F
:04000005080002C12C
:00000001FF
