:020000040800F2
:100000000000012095050008E5050008E505000849
:10001000E5050008E5050008E5050008000000000A
:10002000000000000000000000000000E5050008DE
:10003000E505000800000000E5050008E5050008EA
:10004000E5050008E5050008E5050008E5050008E8
:10005000E5050008E5050008E5050008E5050008D8
:10006000E5050008E5050008E5050008E5050008C8
:10007000E5050008E5050008E5050008E5050008B8
:10008000E5050008E5050008E5050008000000009A
:10009000000000000000000000000000E50500086E
:1000A000E5050008E5050008E5050008E505000888
:1000B000E5050008E5050008E5050008E505000878
:1000C000E5050008E5050008E5050008E505000868
:1000D000E5050008E5050008E5050008000000004A
:1000E000E5050008E5050008E5050008000000003A
:1000F000000000000000000000000000E50500080E
:1001000000000000E5050008E5050008E505000819
:1001100000000000000000000000000000000000DF
:10012000E5050008E5050008E5050008E505000807
:10013000E5050008000000000000000000000000CD
:10014000000000000000000000000000E5050008BD
:10015000E5050008E5050008E5050008E5050008D7
:10016000E5050008E50500080000000000000000AB
:10017000000000000000000000000000000000007F
:1001800000000000E505000800000000000000007D
:04019000E505000879
:1001940010B5054C237833B9044B13B10448AFF3BD
:1001A40000800123237010BD2800002000000000FF
:1001B4004006000808B5034B1BB103490348AFF3DD
:1001C400008008BD000000002C000020400600084C
:1001D40090B482B000AF0446084611461A4623463E
:1001E400FB710346BB710B467B7113463B71FA7975
:1001F400594913469B0013449B000B441B68196820
:10020400BB795B00032202FA03F3DB431C46FA7951
:10021400514813469B0013449B0003441B681A4631
:1002240001EA04031360FA794B4913469B00134413
:100234009B000B441B6819687A79BB795B0002FA4E
:1002440003F31C46FA79444813469B0013449B006D
:1002540003441B681A4641EA04031360FA793E49D1
:1002640013469B0013449B000B4404331B6819681A
:10027400BB79012202FA03F3DB431C46FA793648C0
:1002840013469B0013449B00034404331B681A4623
:1002940001EA04031360FA792F4913469B001344BF
:1002A4009B000B4404331B6819683B7903F001027B
:1002B400BB7902FA03F31C46FA79274813469B00DC
:1002C40013449B00034404331B681A4641EA0403A5
:1002D4001360FA79204913469B0013449B000B4496
:1002E40008331B681968BB795B00032202FA03F325
:1002F400DB431C46FA79184813469B0013449B00C1
:10030400034408331B681A4601EA04031360FA79AC
:10031400114913469B0013449B000B4408331B688C
:1003240019683B795B1003F00302BB795B0002FAA6
:1003340003F31C46FA79084813469B0013449B00B8
:10034400034408331B681A4641EA0403136000BFE0
:100354000837BD4690BC70470000002090B484B0BC
:1003640000AF0346FB710B46BB7113467B71FA79F0
:100374002D4913469B0013449B000B441B681B68C8
:10038400BA795200032101FA02F21A40BB795B00E8
:1003940022FA03F3012B3FD17B79002B1CD0FA798D
:1003A400214913469B0013449B000B4410331B68E4
:1003B4001968BB79012202FA03F31C46FA791A4838
:1003C40013469B0013449B00034410331B681A46D6
:1003D40041EA040313601CE0FA79134913469B00B5
:1003E40013449B000B4410331B681968BB7901222A
:1003F40002FA03F3DB431C46FA790B4813469B00CD
:1004040013449B00034410331B681A4601EA040397
:1004140013600023FB7301E00123FB73FB7B18468D
:100424001037BD4690BC70470000002080B59AB0DC
:1004340000AF3B4658220021184600F0F7F8404A26
:100444003B4692E8030083E803003E4A07F10803B1
:1004540092E8030083E803003B4A07F1100392E8A3
:10046400030083E80300394A07F1180392E8030004
:1004740083E80300364A07F1200392E8030083E887
:100484000300344A07F1280392E8030083E80300D9
:10049400314A07F1300392E8030083E803002F4A4E
:1004A40007F1380392E8030083E803002C4A07F1BC
:1004B400400392E8030083E803002A4A07F1480353
:1004C40092E8030083E8030000237B6609E07B6E67
:1004D400D9B2002301220020FFF77AFE7B6E01339C
:1004E4007B667B6E072BF2DD00233B6624E0002352
:1004F400FB6511E0FB6DD9B23B6EDB0007F16802CE
:100504001A44FB6D1344683B1B781A460020FFF71E
:1005140025FFFB6D0133FB65FB6D072BEADD002333
:10052400BB6502E0BB6D0133BB65BB6D0E4A9342F4
:10053400F8DD3B6E01333B663B6E092BD7DDD3E719
:1005440058060008600600086806000870060008DF
:10055400780600088006000888060008900600084F
:1005640098060008A00600083F420F0080B400AFC0
:10057400064BD3F88830054A43F47003C2F8883038
:1005840000BFBD465DF8047B704700BF00ED00E08E
:10059400DFF834D00D480E490E4A002302E0D45847
:1005A400C4500433C4188C42F9D30B4A0B4C0023B7
:1005B40001E013600432A242FBD3FFF7D7FF00F03F
:1005C40011F8FFF733FF70470000012000000020FE
:1005D40028000020B0060008280000204400002065
:1005E400FEE7000070B50D4D0D4C641BA4100026F1
:1005F400A64209D10B4D0C4C00F020F8641BA4104A
:100604000026A64205D170BD55F8043B9847013633
:10061400EEE755F8043B98470136F2E7A8060008D0
:10062400A8060008A8060008AC0600080244034611
:10063400934200D1704703F8011BF9E7F8B500BFF6
:10064400F8BC08BC9E467047F8B500BFF8BC08BCAF
:040654009E46704707
:10065800010101010101000000010100000000008A
:100668000101000101000100010101010000010078
:100678000001010000010100010001010001010069
:100688000100010101010100010101000000000059
:100698000101010101010100010101010001010045
:0406A800B90100088C
:0406AC0095010008AC
:1006B00000000240040002400C0002401000024012
:1006C0001400024000040240040402400C040240F2
:0806D000100402401404024072
:040000050800059555
:00000001FF
