:020000040800F2
:1000000000000120A5020008F5020008F502000822
:10001000F5020008F5020008F502000800000000E3
:10002000000000000000000000000000F5020008D1
:10003000F502000800000000F5020008F5020008C3
:10004000F5020008F5020008F5020008F5020008B4
:10005000F5020008F5020008F5020008F5020008A4
:10006000F5020008F5020008F5020008F502000894
:10007000F5020008F5020008F5020008F502000884
:10008000F5020008F5020008F50200080000000073
:10009000000000000000000000000000F502000861
:1000A000F5020008F5020008F5020008F502000854
:1000B000F5020008F5020008F5020008F502000844
:1000C000F5020008F5020008F5020008F502000834
:1000D000F5020008F5020008F50200080000000023
:1000E000F5020008F5020008F50200080000000013
:1000F000000000000000000000000000F502000801
:1001000000000000F5020008F5020008F5020008F2
:1001100000000000000000000000000000000000DF
:10012000F5020008F5020008F5020008F5020008D3
:10013000F5020008000000000000000000000000C0
:10014000000000000000000000000000F5020008B0
:10015000F5020008F5020008F5020008F5020008A3
:10016000F5020008F5020008000000000000000091
:10017000000000000000000000000000000000007F
:1001800000000000F5020008000000000000000070
:04019000F50200086C
:1001940010B5054C237833B9044B13B10448AFF3BD
:1001A40000800123237010BD000000200000000027
:1001B4006006000808B5034B1BB103490348AFF3BD
:1001C400008008BD00000000040000206006000854
:1001D40080B584B000AF002301220521422000F045
:1001E40089F8002301220621422000F083F800232D
:1001F40001220721422000F07DF80123002203217F
:10020400422000F077F80023FB731A4B1B69DB08CC
:10021400DBB203F00103FB71FB79012BF5D1002361
:10022400BB6002E0BB680133BB60BB68B3F5FA6F27
:10023400F8DB104B1B69DB08DBB203F00103BB7175
:10024400BB79002BE1D1FA7B0B4BA3FB0213D11A30
:1002540049080B4499080B46DB005B1AD31ADBB23E
:100264001A460521422000F065F9FB7B0133FB733C
:10027400CBE700BF000402402549922480B400AFBC
:10028400064BD3F88830054A43F47003C2F888302B
:1002940000BFBD465DF8047B704700BF00ED00E081
:1002A400DFF834D00D480E490E4A002302E0D4583A
:1002B400C4500433C4188C42F9D30B4A0B4C0023AA
:1002C40001E013600432A242FBD3FFF7D7FF00F032
:1002D400A1F9FFF77DFF7047000001200000002016
:1002E4000000002080060008000000201C00002000
:1002F400FEE7000080B485B000AFB9607A603B606F
:100304000346FB73FB7B412B03D0422B00F083801D
:1003140003E1854B1B6B844A43F0010313637B6841
:10032400032B59D801A252F823F000BF410300085F
:1003340095030008AD030008C50300087B4B1B6848
:10034400BA685200032101FA02F2D2431146774AF5
:100354000B4013603B68012B03D03B68102B0BD080
:100364003AE0724BDB680121BA6801FA02F21146E5
:100374006E4A0B43D3600AE06C4BDB681021BA6809
:1003840001FA02F21146694A0B43D36000BF23E02D
:10039400664B1B68BA685200012101FA02F2114649
:1003A400624A0B43136017E0604B1B68BA68520043
:1003B400022101FA02F211465C4A0B4313600BE07E
:1003C4005A4B1B68BA685200032101FA02F2114623
:1003D400564A0B43136000BF3B68002B03D03B68B5
:1003E400012B0CD099E0514B5B680121BA6801FAEA
:1003F40002F2D24311464D4A0B4053600AE04B4B84
:100404005B680121BA6801FA02F21146474A0B43BC
:10041400536000BF81E0444B1B6B434A43F002032B
:1004240013637B68032B59D801A252F823F000BF51
:100434004504000899040008B1040008C904000830
:100444003B4B1B68BA685200032101FA02F2D24303
:100454001146374A0B4013603B68012B03D03B68BD
:10046400102B0BD03AE0324BDB680121BA6801FA59
:1004740002F211462E4A0B43D3600AE02C4BDB6890
:100484001021BA6801FA02F21146294A0B43D360DB
:1004940000BF23E0264B1B68BA685200012101FA11
:1004A40002F21146224A0B43136017E0204B1B68EB
:1004B400BA685200022101FA02F211461C4A0B43A7
:1004C40013600BE01A4B1B68BA685200032101FA4F
:1004D40002F21146164A0B43136000BF3B68002B1F
:1004E40003D03B68012B0CD016E0114B5B68012153
:1004F400BA6801FA02F2D24311460D4A0B40536026
:100504000AE00B4B5B680121BA6801FA02F211465A
:10051400074A0B43536000BF00BF00BF1437BD46FA
:100524005DF8047B704700BF0038024000000240C1
:100534000004024080B487B000AF0346B9607A601B
:10054400FB73FB7B412B02D0422B2CD057E02F4B6B
:100554001B68BA68520003219140BA68520041FAFC
:1005640002F21340012B1BD17B68002B0AD0274BCE
:100574005B690121BA6801FA02F21146234A0B436E
:1005840053610AE0214B5B690121BA6801FA02F266
:10059400D24311461D4A0B4053610023FB752EE0E4
:1005A4000123FB752BE01A4B1B68BA68520001212A
:1005B4009140BA68520041FA02F21340012B1BD158
:1005C4007B68002B0AD0124B5B690121BA6801FADF
:1005D40002F211460E4A0B4353610AE00C4B5B696D
:1005E4000121BA6801FA02F2D2431146084A0B40CB
:1005F40053610023FB7501E00123FB7500BFFB7D04
:1006040018461C37BD465DF8047B70470000024065
:100614000004024070B50D4D0D4C641BA41000265F
:10062400A64209D10B4D0C4C00F018F8641BA41021
:100634000026A64205D170BD55F8043B9847013603
:10064400EEE755F8043B98470136F2E778060008D0
:1006540078060008780600087C060008F8B500BF94
:10066400F8BC08BC9E467047F8B500BFF8BC08BC8F
:040674009E467047E7
:04067800B9010008BC
:04067C0095010008DC
:04000005080002A548
:00000001FF
