:020000040800F2
:10000000000001207D020008CD020008CD0200089A
:10001000CD020008CD020008CD020008000000005B
:10002000000000000000000000000000CD020008F9
:10003000CD02000800000000CD020008CD0200083B
:10004000CD020008CD020008CD020008CD02000854
:10005000CD020008CD020008CD020008CD02000844
:10006000CD020008CD020008CD020008CD02000834
:10007000CD020008CD020008CD020008CD02000824
:10008000CD020008CD020008CD02000800000000EB
:10009000000000000000000000000000CD02000889
:1000A000CD020008CD020008CD020008CD020008F4
:1000B000CD020008CD020008CD020008CD020008E4
:1000C000CD020008CD020008CD020008CD020008D4
:1000D000CD020008CD020008CD020008000000009B
:1000E000CD020008CD020008CD020008000000008B
:1000F000000000000000000000000000CD02000829
:1001000000000000CD020008CD020008CD0200086A
:1001100000000000000000000000000000000000DF
:10012000CD020008CD020008CD020008CD02000873
:10013000CD020008000000000000000000000000E8
:10014000000000000000000000000000CD020008D8
:10015000CD020008CD020008CD020008CD02000843
:10016000CD020008CD0200080000000000000000E1
:10017000000000000000000000000000000000007F
:1001800000000000CD020008000000000000000098
:04019000CD02000894
:1001940010B5054C237833B9044B13B10448AFF3BD
:1001A40000800123237010BD000000200000000027
:1001B4001803000808B5034B1BB103490348AFF308
:1001C400008008BD0000000004000020180300089F
:1001D40080B483B000AF1C4B1B6B1B4A43F001037C
:1001E40013631A4B1B68194A43F001031360174B3E
:1001F4005B68164A23F001035360144B5B69134A8E
:1002040023F001035361114B5B69104A43F001036E
:10021400536100237B6002E07B6801337B607B6871
:100224000B4A9342F8DD094B5B69084A23F001034A
:10023400536100233B6002E03B6801333B603B6851
:10024400034A9342F8DDDEE7003802400000024032
:100254003F420F0080B400AF064BD3F88830054A04
:1002640043F47003C2F8883000BFBD465DF8047BD8
:10027400704700BF00ED00E0DFF834D00D480E49B0
:100284000E4A002302E0D458C4500433C4188C42EC
:10029400F9D30B4A0B4C002301E013600432A24251
:1002A400FBD3FFF7D7FF00F011F8FFF791FF70477A
:1002B4000000012000000020000000203803000896
:1002C400000000201C000020FEE7000070B50D4D6A
:1002D4000D4C641BA4100026A64209D10B4D0C4CF6
:1002E40000F018F8641BA4100026A64205D170BDC6
:1002F40055F8043B98470136EEE755F8043B984718
:100304000136F2E730030008300300083003000828
:1003140034030008F8B500BFF8BC08BC9E4670471B
:0C032400F8B500BFF8BC08BC9E4670474E
:04033000B901000807
:040334009501000827
:040000050800027D70
:00000001FF
