:020000040800F2
:100000000000012095060008E5060008E506000846
:10001000E5060008E5060008E50600080000000007
:10002000000000000000000000000000E5060008DD
:10003000E506000800000000E5060008E5060008E7
:10004000E5060008E5060008E5060008E5060008E4
:10005000E5060008E5060008E5060008E5060008D4
:10006000E5060008E5060008E5060008E5060008C4
:10007000E5060008E5060008E5060008E5060008B4
:10008000E5060008E5060008E50600080000000097
:10009000000000000000000000000000E50600086D
:1000A000E5060008E5060008E5060008E506000884
:1000B000E5060008E5060008E5060008E506000874
:1000C000E5060008E5060008E5060008E506000864
:1000D000E5060008E5060008E50600080000000047
:1000E000E5060008E5060008E50600080000000037
:1000F000000000000000000000000000E50600080D
:1001000000000000E5060008E5060008E506000816
:1001100000000000000000000000000000000000DF
:10012000E5060008E5060008E5060008E506000803
:10013000E5060008000000000000000000000000CC
:10014000000000000000000000000000E5060008BC
:10015000E5060008E5060008E5060008E5060008D3
:10016000E5060008E50600080000000000000000A9
:10017000000000000000000000000000000000007F
:1001800000000000E506000800000000000000007C
:04019000E506000878
:1001940010B5054C237833B9044B13B10448AFF3BD
:1001A40000800123237010BD3000002000000000F7
:1001B4003007000808B5034B1BB103490348AFF3EC
:1001C400008008BD00000000340000203007000853
:1001D40080B483B000AF0346FB71FB79412B02D09E
:1001E400422B07D00DE00A4B1B6B094A43F0010375
:1001F400136306E0064B1B6B054A43F002031363CB
:1002040000BF00BF0C37BD465DF8047B704700BFDC
:100214000038024090B482B000AF0446084611464C
:100224001A462346FB710346BB710B467B7113468A
:100234003B71FB79412B02D0422B49D091E04B4BCF
:100244001B68BA795200032101FA02F2D243114623
:10025400464A0B401360454B1B687979BA795200C2
:1002640001FA02F21146414A0B4313603F4B5B68AB
:10027400BA79012101FA02F2D24311463B4A0B40FA
:1002840053603A4B5B683A7902F00101BA7901FA9A
:1002940002F21146354A0B435360344BDB68BA799A
:1002A4005200032101FA02F2D24311462F4A0B40B5
:1002B400D3602E4BDB683A79521002F00301BA790D
:1002C400520001FA02F21146284A0B43D36048E077
:1002D400274B1B68BA795200032101FA02F2D24378
:1002E4001146234A0B401360214B1B687979BA7974
:1002F400520001FA02F211461D4A0B4313601C4BD3
:100304005B68BA79012101FA02F2D2431146184A14
:100314000B405360164B5B683A7902F00101BA79DD
:1003240001FA02F21146124A0B435360104BDB6888
:10033400BA795200032101FA02F2D24311460C4A5F
:100344000B40D3600A4BDB683A79521002F0030188
:10035400BA79520001FA02F21146054A0B43D360FE
:1003640000BF00BF0837BD4690BC70470000024084
:100374000004024080B485B000AF0346FB710B4615
:10038400BB7113467B71FB79412B02D0422B2DD0DC
:1003940059E0324B1B68BA795200032101FA02F288
:1003A4001A40BB795B0022FA03F3012B1BD17B7942
:1003B400002B0AD0294B5B69BA79012101FA02F2B8
:1003C4001146264A0B4353610AE0244B5B69BA7910
:1003D400012101FA02F2D2431146204A0B40536133
:1003E4000023FB7332E00123FB732FE01C4B1B68DB
:1003F400BA795200032101FA02F21A40BB795B0078
:1004040022FA03F3012B1BD17B79002B0AD0144B66
:100414005B69BA79012101FA02F21146104A0B43D1
:1004240053610AE00E4B5B69BA79012101FA02F2C9
:10043400D24311460A4A0B4053610023FB7305E083
:100444000123FB7302E00123FB7300BFFB7B18460F
:100454001437BD465DF8047B704700BF00000240BE
:100464000004024080B485B000AF03460A46FB7125
:100474001346BB710023FB73FB79412B02D0422B43
:100484000CD017E00F4B1B69BA79012101FA02F273
:100494001A40BB7922FA03F3FB730BE00A4B1B6986
:1004A400BA79012101FA02F21A40BB7922FA03F364
:1004B400FB7300BFFB7B18461437BD465DF8047B15
:1004C400704700BF000002400004024080B582B0C3
:1004D40000AF00237B6009E07B68D9B200230122CE
:1004E4004220FFF797FE7B6801337B607B68022B19
:1004F400F2DD00233B600BE03B68DBB20333D9B28F
:10050400022300224220FFF785FE3B6801333B6053
:100514003B68032BF0DD00BF00BF0837BD4680BD3C
:1005240080B582B000AF224B1B78002B3BD1002357
:100534007B6035E07B68DBB2002219464220FFF77E
:1005440019FF00233B601EE03B68DBB20333DBB2E0
:1005540019464220FFF786FF0346002B10D1144BA7
:1005640001221A7013493A6813465B0013447A68EF
:10057400134451F82330DAB20F4B1A7000F051F8DB
:100584003B6801333B603B68032BDDDD7B68DBB2FA
:10059400012219464220FFF7EDFE7B6801337B60A0
:1005A4007B68022BC6DD00BF0837BD4680BD00BF97
:1005B4004C000020000000204D00002080B400AF5B
:1005C400074B1B78012B05D1054B00221A70054BF4
:1005D4001B7800E0FF231846BD465DF8047B704796
:1005E4004C0000204D00002080B582B000AF4120B7
:1005F400FFF7EEFD4220FFF7EBFD0023FB7108E05F
:10060400F979002301224120FFF704FEFB7901332D
:10061400FB71FB79062BF3D9FFF758FFFFF780FF37
:10062400FCE780B582B000AFFFF7C8FF0346FB705C
:1006340000237B6012E07B68D9B2FA7801207B68E2
:1006440000FA03F31A407B6842FA03F3DBB21A465A
:100654004120FFF78FFE7B6801337B607B68062BAC
:10066400E9DD00BF00BF0837BD4680BD80B400AFE0
:10067400064BD3F88830054A43F47003C2F8883037
:1006840000BFBD465DF8047B704700BF00ED00E08D
:10069400DFF834D00D480E490E4A002302E0D45846
:1006A400C4500433C4188C42F9D30B4A0B4C0023B6
:1006B40001E013600432A242FBD3FFF7D7FF00F03E
:1006C40011F8FFF791FF704700000120000000209F
:1006D40030000020500700083000002050000020A7
:1006E400FEE7000070B50D4D0D4C641BA4100026F0
:1006F400A64209D10B4D0C4C00F018F8641BA41051
:100704000026A64205D170BD55F8043B9847013632
:10071400EEE755F8043B98470136F2E7480700082E
:1007240048070008480700084C070008F8B500BF50
:10073400F8BC08BC9E467047F8B500BFF8BC08BCBE
:040744009E46704716
:04074800B9010008EB
:04074C00950100080B
:10075000060000005B0000004F0000006600000083
:100760006D0000007D000000070000007F00000019
:100770006F0000003F0000003F0000003F0000004D
:040000050800069554
:00000001FF
