:020000040800F2
:100000000000012081070008090700080F07000809
:10001000150700081B070008210700080000000062
:10002000000000000000000000000000270700089A
:1000300035070008000000004307000851070008CA
:10004000D1070008D1070008D1070008D107000830
:10005000D1070008D1070008B1060008DD06000836
:10006000D1070008D1070008D1070008D107000810
:10007000D1070008D1070008D1070008D107000800
:10008000D1070008D1070008D107000800000000D0
:10009000000000000000000000000000D107000880
:1000A000D1070008D1070008D1070008D1070008D0
:1000B000D1070008D1070008D1070008D1070008C0
:1000C000D1070008D1070008D1070008D1070008B0
:1000D000D1070008D1070008D10700080000000080
:1000E000D1070008D1070008D10700080000000070
:1000F000000000000000000000000000D107000820
:1001000000000000D1070008D1070008D10700084F
:1001100000000000000000000000000000000000DF
:10012000D1070008D1070008D1070008D10700084F
:10013000D1070008000000000000000000000000DF
:10014000000000000000000000000000D1070008CF
:10015000D1070008D1070008D1070008D10700081F
:10016000D1070008D10700080000000000000000CF
:10017000000000000000000000000000000000007F
:1001800000000000D107000800000000000000008F
:04019000D10700088B
:1001940010B5054C237833B9044B13B10448AFF3BD
:1001A40000800123237010BD3400002000000000F3
:1001B4004408000808B5034B1BB103490348AFF3D7
:1001C400008008BD0000000038000020440800083A
:1001D40080B483B000AF0346FB71FB79002B05D1DB
:1001E4000A4B1B68094A43F001031360FB79012B96
:1001F40005D1064B1B68054A43F00203136000BF98
:100204000C37BD465DF8047B704700BF30380240B0
:1002140080B483B000AF0346FB71084B1B68FA79C6
:10022400012101FA02F21146044A0B43136000BF94
:100234000C37BD465DF8047B704700BF443802406C
:1002440080B483B000AF0346FB71084B1B68FA7996
:100254009200012101FA02F21146044A0B43136091
:1002640000BF0C37BD465DF8047B70470838014079
:1002740080B483B000AF0346FB71084B1B68FA7966
:10028400012101FA02F21146044A0B43136000BF34
:100294000C37BD465DF8047B704700BF003C01404D
:1002A40080B483B000AF0346FB71054B044A1B685E
:1002B400136000BF0C37BD465DF8047B704700BF78
:1002C400003C014080B483B000AF0346FB71084B8F
:1002D4001B68FA79012101FA02F21146044A0B4320
:1002E400136000BF0C37BD465DF8047B704700BF48
:1002F4000C3C014080B400AF084B1B68074A43F034
:1003040040031360054B1B68044A43F080031360E9
:1003140000BFBD465DF8047B704700BF00E100E00C
:1003240080B483B000AF0346FB71084B1B68FA79B5
:10033400012101FA02F21146044A0B43136000BF83
:100344000C37BD465DF8047B704700BF143C014088
:1003540090B482B000AF0446084611461A462346BC
:10036400FB710346BB710B467B7113463B71FA79F3
:10037400564913469B0013449B000B441B681968A1
:10038400BB795B00032202FA03F3DB431C46FA79D0
:100394004E4813469B0013449B0003441B6801EA28
:1003A40004021A60FA79494913469B0013449B00DE
:1003B4000B441B6819687A79BB795B0002FA03F372
:1003C4001C46FA79414813469B0013449B0003449E
:1003D4001B6841EA04021A60FA793C4913469B00FF
:1003E40013449B000B4404331B681968BB79012236
:1003F40002FA03F3DB431C46FA79344813469B00A4
:1004040013449B00034404331B6801EA04021A608A
:10041400FA792E4913469B0013449B000B44043382
:100424001B6819683B7903F00102BB7902FA03F3F4
:100434001C46FA79254813469B0013449B00034449
:1004440004331B6841EA04021A60FA791F4913460F
:100454009B0013449B000B4408331B681968BB7949
:100464005B00032202FA03F3DB431C46FA791748C4
:1004740013469B0013449B00034408331B6801EAA2
:1004840004021A60FA79114913469B0013449B0035
:100494000B4408331B6819683B795B1003F00302B3
:1004A400BB795B0002FA03F31C46FA79074813464A
:1004B4009B0013449B00034408331B6841EA040275
:1004C4001A6000BF0837BD4690BC7047000000208A
:1004D40090B484B000AF0346FB710B46BB71134666
:1004E4007B71FA792C4913469B0013449B000B44FF
:1004F4001B681B68BA795200032101FA02F21A4000
:10050400BB795B0022FA03F3012B3DD17B79002BED
:100514001BD0FA79204913469B0013449B000B44DB
:1005240010331B681968BB79012202FA03F31C46D5
:10053400FA79194813469B0013449B000344103373
:100544001B6841EA04021A601BE0FA791249134657
:100554009B0013449B000B4410331B681968BB7940
:10056400012202FA03F3DB431C46FA790A481346D4
:100574009B0013449B00034410331B6801EA0402EC
:100584001A600023FB7301E00123FB73FB7B184615
:100594001037BD4690BC70470000002080B584B081
:1005A40000AF0020FFF714FE0120FFF711FE022325
:1005B400002200210120FFF7CBFE022300220121AB
:1005C4000120FFF7C5FE0023FB6009E0FB68D9B2F8
:1005D400002301220020FFF7BBFEFB680133FB6010
:1005E400FB68062BF2DD0023BB6015E0BB68D9B2C3
:1005F4002C4B1B7818460122BB6802FA03F300EA6D
:100604000302BB6842FA03F3DBB21A460020FFF789
:100614005FFFBB680133BB60BB68062BE6DD0E20C1
:10062400FFF7F6FD0020FFF70BFE0120FFF708FEA1
:100634000020FFF747FE0120FFF744FEFFF75AFEB4
:100644000020FFF715FE0120FFF712FE164B1B6872
:100654003B600020FFF724FE0120FFF721FE00236A
:100664007B601AE07B68D9B20E4A3B6813441B785E
:10067400184601227B6802FA03F300EA03027B684E
:1006840042FA03F3DBB21A460020FFF721FF0020F1
:10069400FFF746FE7B6801337B607B68062BE1DD58
:1006A400CEE700BF280000205000002080B400AF37
:1006B400084B1B68092B03D1064B09221A6004E07E
:1006C400044B1B680133034A136000BFBD465DF849
:1006D400047B70475000002080B400AF084B1B68B7
:1006E400002B03D1064B00221A6004E0044B1B6864
:1006F400013B034A136000BFBD465DF8047B7047AD
:100704005000002080B400AFFEE780B400AFFEE7E5
:1007140080B400AFFEE780B400AFFEE780B400AF62
:10072400FEE780B400AF00BFBD465DF8047B7047B0
:1007340080B400AF00BFBD465DF8047B704780B451
:1007440000AF00BFBD465DF8047B704780B500AFC5
:1007540000F03EF800BF80BD80B400AF064BD3F874
:100764008830054A43F47003C2F8883000BFBD46A0
:100774005DF8047B704700BF00ED00E0DFF834D083
:100784000D480E490E4A002302E0D458C4500433E5
:10079400C4188C42F9D30B4A0B4C002301E01360BC
:1007A4000432A242FBD3FFF7D7FF00F025F8FFF78E
:1007B400F5FE7047000001200000002034000020F6
:1007C400640800083400002058000020FEE7000000
:1007D40080B400AF064B1B781A46064B1B681344C3
:1007E400044A136000BFBD465DF8047B704700BF38
:1007F400320000205400002070B50D4D0D4C641BD8
:10080400A4100026A64209D10B4D0C4C00F018F898
:10081400641BA4100026A64205D170BD55F8043B04
:1008240098470136EEE755F8043B98470136F2E75E
:100834005C0800085C0800085C0800086008000800
:10084400F8B500BFF8BC08BC9E467047F8B500BFB9
:08085400F8BC08BC9E46704789
:04085C00B9010008D6
:0408600095010008F6
:1008640000000240040002400C000240100002405C
:100874001400024000040240040402400C0402403C
:1008840010040240140402403F065B4F666D7D076E
:040894007F6F010071
:040000050800078167
:00000001FF
