:020000040800F2
:1000000000000120850500080D0500081305000803
:10001000190500081F05000825050008000000005C
:100020000000000000000000000000002B05000898
:1000300039050008000000004705000855050008C4
:10004000D5050008D5050008D5050008D505000828
:10005000D5050008D5050008E9040008D505000805
:10006000D5050008D5050008D5050008D505000808
:10007000D5050008D5050008D5050008D5050008F8
:10008000D5050008D5050008D505000800000000CA
:10009000000000000000000000000000D50500087E
:1000A000D5050008D5050008D5050008D5050008C8
:1000B000D5050008D5050008D5050008D5050008B8
:1000C000D5050008D5050008D5050008D5050008A8
:1000D000D5050008D5050008D5050008000000007A
:1000E000D5050008D5050008D5050008000000006A
:1000F000000000000000000000000000D50500081E
:1001000000000000D5050008D5050008D505000849
:1001100000000000000000000000000000000000DF
:10012000D5050008D5050008D5050008D505000847
:10013000D5050008000000000000000000000000DD
:10014000000000000000000000000000D5050008CD
:10015000D5050008D5050008D5050008D505000817
:10016000D5050008D50500080000000000000000CB
:10017000000000000000000000000000000000007F
:1001800000000000D505000800000000000000008D
:04019000D505000889
:1001940010B5054C237833B9044B13B10448AFF3BD
:1001A40000800123237010BD2C00002000000000FB
:1001B4004806000808B5034B1BB103490348AFF3D5
:1001C400008008BD00000000300000204806000840
:1001D40080B483B000AF0346FB71FB79002B05D1DB
:1001E4000A4B1B68094A43F001031360FB79012B96
:1001F40005D1064B1B68054A43F00203136000BF98
:100204000C37BD465DF8047B704700BF30380240B0
:1002140080B483B000AF0346FB71084B1B68FA79C6
:10022400012101FA02F21146044A0B43136000BF94
:100234000C37BD465DF8047B704700BF443802406C
:1002440080B483B000AF0346FB71094B1B68FA7995
:1002540092000F2101FA02F2D2431146044A0B40E4
:10026400136000BF0C37BD465DF8047B704700BFC8
:100274000838014080B483B000AF0346FB71084BDB
:100284001B68FA79012101FA02F21146044A0B4370
:10029400136000BF0C37BD465DF8047B704700BF98
:1002A400003C014080B483B000AF0346FB71084BAF
:1002B4001B68FA79012101FA02F21146044A0B4340
:1002C400136000BF0C37BD465DF8047B704700BF68
:1002D4000C3C014080B400AF054B1B68044A43F05A
:1002E4004003136000BFBD465DF8047B704700BF48
:1002F40000E100E080B483B000AF0346FB71084B1B
:100304001B68FA79012101FA02F21146044A0B43EF
:10031400136000BF0C37BD465DF8047B704700BF17
:10032400143C014090B482B000AF04460846114624
:100334001A462346FB710346BB710B467B71134679
:100344003B71FA79564913469B0013449B000B44B6
:100354001B681968BB795B00032202FA03F3DB43D1
:100364001C46FA794E4813469B0013449B000344F1
:100374001B6801EA04021A60FA79494913469B0092
:1003840013449B000B441B6819687A79BB795B00A2
:1003940002FA03F31C46FA79414813469B001344BE
:1003A4009B0003441B6841EA04021A60FA793C4941
:1003B40013469B0013449B000B4404331B681968C9
:1003C400BB79012202FA03F3DB431C46FA79344871
:1003D40013469B0013449B00034404331B6801EA47
:1003E40004021A60FA792E4913469B0013449B00B9
:1003F4000B4404331B6819683B7903F00102BB7991
:1004040002FA03F31C46FA79254813469B00134469
:100414009B00034404331B6841EA04021A60FA791E
:100424001F4913469B0013449B000B4408331B686D
:100434001968BB795B00032202FA03F3DB431C4611
:10044400FA79174813469B0013449B00034408336E
:100454001B6801EA04021A60FA79114913469B00E9
:1004640013449B000B4408331B6819683B795B10E9
:1004740003F00302BB795B0002FA03F31C46FA792A
:10048400074813469B0013449B00034408331B682E
:1004940041EA04021A6000BF0837BD4690BC7047A9
:1004A4000000002080B500AF0020FFF791FE02237A
:1004B400002200210020FFF735FF00230122012143
:1004C4000020FFF72FFF0E20FFF7A2FE0020FFF70A
:1004D400B7FE0020FFF7CEFE0020FFF7E3FEFFF794
:1004E400F9FEFEE780B500AF064B1B691A68054BA1
:1004F4001B6982F002021A600020FFF7FBFE00BFB6
:1005040080BD00BF0000002080B400AFFEE780B4CF
:1005140000AFFEE780B400AFFEE780B400AFFEE7B3
:1005240080B400AFFEE780B400AF00BFBD465DF805
:10053400047B704780B400AF00BFBD465DF8047B08
:10054400704780B400AF00BFBD465DF8047B7047C0
:1005540080B500AF00F03EF800BF80BD80B400AFAE
:10056400064BD3F88830054A43F47003C2F8883048
:1005740000BFBD465DF8047B704700BF00ED00E09E
:10058400DFF834D00D480E490E4A002302E0D45857
:10059400C4500433C4188C42F9D30B4A0B4C0023C7
:1005A40001E013600432A242FBD3FFF7D7FF00F04F
:1005B40025F8FFF777FF70470000012000000020B6
:1005C4002C000020680600082C0000204C000020AD
:1005D400FEE7000080B400AF064B1B781A46064BBA
:1005E4001B681344044A136000BFBD465DF8047BD6
:1005F400704700BF280000204800002070B50D4D52
:100604000D4C641BA4100026A64209D10B4D0C4CC2
:1006140000F018F8641BA4100026A64205D170BD92
:1006240055F8043B98470136EEE755F8043B9847E4
:100634000136F2E76006000860060008600600085C
:1006440064060008F8B500BFF8BC08BC9E467047B5
:0C065400F8B500BFF8BC08BC9E4670471B
:04066000B9010008D4
:0406640095010008F4
:1006680000000240040002400C000240100002405A
:100678001400024000040240040402400C0402403A
:0C068800100402401404024001000000B5
:040000050800058565
:00000001FF
